:020000040000FA
:100000000C9472000C949A000C949A000C949A0030
:100010000C949A000C949A000C949A000C949A00F8
:100020000C949A000C949A000C949A000C949A00E8
:100030000C949A000C949A000C949A000C949A00D8
:100040000C94A50A0C949A000C94150B0C94EF0ACE
:100050000C949A000C949A000C949A000C949A00B8
:100060000C94470B0C949A001F1C1F1E1F1E1F1F71
:100070001E1F1E32313A35303A3038004465632055
:1000800031342032303233000000000024002700D9
:100090002A0000000000250028002B0000000000BE
:1000A00023002600290004040404040404040202BA
:1000B00002020202030303030303010204081020E7
:1000C00040800102040810200102040810200000F2
:1000D0000008000201000003040700000000000007
:1000E0000000660C11241FBECFEFD8E0DEBFCDBFED
:1000F00027E0A0E7B4E001C01D92A733B207E1F703
:1001000014E0A0E0B1E0E6E0F5E402C005900D9255
:10011000A037B107D9F710E0C2E7D0E004C02197BB
:10012000FE010E945621C137D107C9F70E94310D47
:100130000C9481220C94000096E0899FD001112438
:10014000A455B94F90967C936E935F9791E09196EA
:100150009C939197E0911907F0911A0790911807D5
:10016000992339F0309751F0811108C08091C80669
:100170000994309719F05C968C91FACF0895CF923C
:10018000DF92EF92FF920F931F9396E0899FF00109
:100190001124E455F94F11A2278D30A121303105EA
:1001A00051F178F02230310509F451C02330310586
:1001B00009F452C01F910F91FF90EF90DF90CF9004
:1001C00008956623B9F361E070E00E949C002FB7A8
:1001D000F89480918D0590918E05A0918F05B09136
:1001E00090052FBF8093040790930507A0930607FF
:1001F000B0930707DFCF9FB7F894C0908D05D090DC
:100200008E05E0908F05F09090059FBF0091040748
:10021000109105072091060730910707C01AD10AEF
:10022000E20AF30A009116071091170730E020E068
:100230000C151D052E053F0550F462E070E01F917E
:100240000F91FF90EF90DF90CF900C949C00611184
:10025000B1CF63E070E0F3CF70E060E0F0CF8330C7
:1002600081F028F4813099F08230A9F00895873028
:10027000A9F08830C9F08430B1F4809180008F7D7E
:1002800003C0809180008F7780938000089584B5AB
:100290008F7784BD089584B58F7DFBCF8091B000AA
:1002A0008F778093B00008958091B0008F7DF9CF53
:1002B000CF93DF93282F30E0F901E253FF4F849171
:1002C000F901E654FF4FD491F901EA55FF4FC4916B
:1002D000CC23A1F081110E942F01EC2FF0E0EE0F52
:1002E000FF1FE456FF4FA591B491EC91ED2381E0FF
:1002F00090E009F480E0DF91CF91089580E090E0F4
:10030000FACF1F93CF93DF93282F30E0F901E25308
:10031000FF4F8491F901E654FF4FD491F901EA555A
:10032000FF4FC491CC23A9F0162F81110E942F01F9
:10033000EC2FF0E0EE0FFF1FEE56FF4FA591B491AA
:100340008FB7F894EC91111108C0D095DE23DC939F
:100350008FBFDF91CF911F910895DE2BF8CFCF9300
:10036000DF9390E0FC01E654FF4F24918A559F4FA4
:10037000FC0184918823C9F090E0880F991FFC014B
:10038000E857FF4FA591B491FC01EE56FF4FC59180
:10039000D49161110DC09FB7F8948C912095822360
:1003A0008C938881282328839FBFDF91CF91089564
:1003B000623051F49FB7F8943C91822F809583234B
:1003C0008C93E8812E2BEFCF8FB7F894EC912E2BE6
:1003D0002C938FBFEACF8E50806480937C008091F5
:1003E0007A00806480937A0080917A0086FDFCCF49
:1003F000809178009091790008953FB7F8948091AA
:10040000890590918A05A0918B05B0918C0526B540
:10041000A89B05C02F3F19F00196A11DB11D3FBF3C
:10042000BA2FA92F982F8827BC01CD01620F711D0B
:10043000811D911D42E0660F771F881F991F4A9505
:10044000D1F708958F929F92AF92BF92CF92DF9291
:10045000EF92FF924B015C010E94FD016B017C0158
:100460000E94FD016C197D098E099F09683E734049
:1004700081059105A8F321E0821A9108A108B1082D
:1004800088EEC80E83E0D81EE11CF11C8114910493
:10049000A104B10429F7FF90EF90DF90CF90BF90B7
:1004A000AF909F908F900895862F642F0C94AF018A
:1004B000862F642F0C948101862F0C945801089587
:1004C0000895DC01ED91FC910190F081E02D0994FB
:1004D000AF92BF92CF92DF92EF92FF920F931F9352
:1004E000CF93DF936C017B018B01040F151FEB0190
:1004F0005E01AE18BF08C017D10759F06991D60147
:10050000ED91FC910190F081E02DC6010995892BB8
:1005100079F7C501DF91CF911F910F91FF90EF9077
:10052000DF90CF90BF90AF900895FC01538D448D24
:10053000252F30E0842F90E0821B930B541710F08E
:10054000CF96089501970895FC01918D828D98179B
:1005500061F0A28DAE0FBF2FB11D5D968C91928D73
:100560009F5F9F73928F90E008958FEF9FEF0895A4
:10057000FC01918D828D981731F0828DE80FF11D6D
:10058000858D90E008958FEF9FEF0895FC01918D88
:10059000228D892F90E0805C9F4F821B91098F7381
:1005A0009927089583E096E00E94C60221E0892BF6
:1005B00009F420E0822F089580E090E0892B29F053
:1005C0000E94D20281110C9400000895FC01A48DB8
:1005D000A80FB92FB11DA35ABF4F2C91848D90E065
:1005E00001968F739927848FA689B7892C93A08948
:1005F000B1898C91837080648C93938D848D9813D2
:1006000006C00288F389E02D80818F7D8083089564
:10061000EF92FF920F931F93CF93DF93EC0181E052
:10062000888F9B8D8C8D98131AC0E889F9898081F9
:1006300085FF15C09FB7F894EE89FF896083E8892C
:10064000F98980818370806480839FBF81E090E01E
:10065000DF91CF911F910F91FF90EF900895F62EAB
:100660000B8D10E00F5F1F4F0F731127E02E8C8D45
:100670008E110CC00FB607FCFACFE889F98980818A
:1006800085FFF5CFCE010E94E602F1CFEB8DEC0F96
:10069000FD2FF11DE35AFF4FF0829FB7F8940B8FA7
:1006A000EA89FB8980818062CFCFCF93DF93EC0111
:1006B000888D8823B9F0AA89BB89E889F9898C914A
:1006C00085FD03C0808186FD0DC00FB607FCF7CF06
:1006D0008C9185FFF2CF808185FFEDCFCE010E9406
:1006E000E602E9CFDF91CF91089520919104260F82
:1006F0003327331F21323105ECF42091D905FC0159
:1007000090E080E0243069F082E00895A0919104A7
:100710002191AC014F585B4FA40FB52FB11D2C9305
:100720000196861798F380919104680F6093910465
:1007300080E0089581E008951092D90581E08093CA
:10074000D8051092B30561E082E10E94810161E069
:1007500083E10E948101E9EBF0E080818E7F80835C
:1007600080818D7F808388E48093B80085E48093C6
:10077000BC000895CF93DF9391E090937004882399
:10078000B9F0C091B800D091BA008091BC008A7BCA
:100790008093BC0060E082E10E94810160E083E11F
:1007A0000E9481010E949C03D093BA00C093B800BC
:1007B000DF91CF9108958F929F92AF92BF92CF9287
:1007C000DF92EF92FF920F931F93CF93DF93D0911D
:1007D0000206D13208F0D7C0182FC09101060E943E
:1007E000FD016B017C018091D90581116BC082E014
:1007F0008093D9051093D8058FEF8093D705109279
:10080000D605D093D505A1EEB5E0E5EBF5E080E0A7
:10081000D81391C01092B4058091B405CC0FC82BA9
:10082000C093B4058091B305813009F088C010925F
:10083000B3050E94FD016B017C018091B40580939A
:10084000BB008091DB059091DC05A091DD05B091A6
:10085000DE05892B8A2B8B2BA1F00E94FD010091D4
:10086000DB051091DC052091DD053091DE056C196A
:100870007D098E099F09061717072807390708F40D
:1008800042C08091BC0083FDD8CF85EC8093BC0032
:100890000E94FD016B017C018091D905823009F431
:1008A00050C08091D7058F3F09F46FC08091D70564
:1008B000803209F46CC08091D705803309F469C097
:1008C00084E026C08091DB059091DC05A091DD05D8
:1008D000B091DE05892B8A2B8B2B09F484CF0E94E3
:1008E000FD018090DB059090DC05A090DD05B090C7
:1008F000DE056C197D098E099F0986169706A806E4
:10090000B90608F070CF8091DA050E94BA0385E03D
:100910001092E005109202061092DF05DF91CF9150
:100920001F910F91FF90EF90DF90CF90BF90AF900D
:100930009F908F9008959D9191938F5F69CF85EEE1
:10094000A5CF8091DB059091DC05A091DD05B091EC
:10095000DE05892B8A2B8B2B09F49ECF0E94FD018B
:100960000091DB051091DC052091DD053091DE055D
:100970006C197D098E099F09061717072807390783
:1009800008F08ACFC0CF81E0C3CF80E0C1CF82E042
:10099000BFCF83E0BDCF0895E0919205809191058E
:1009A000E81730F4F0E0ED56FA4F808190E00895BA
:1009B0008FEF9FEF089590919205809191052FEF11
:1009C0003FEF981748F4E92FF0E0ED56FA4F2081F9
:1009D00030E09F5F90939205C90108958091910541
:1009E00090919205891B990B0895CF92DF92EF9217
:1009F000FF920F931F93CF93DF937C01CB018A016A
:100A00002091DF05222389F0EB016B01C40ED51E76
:100A1000CC15DD0569F06991D701ED91FC9101904C
:100A2000F081E02DC7010995F3CF642F0E94750373
:100A3000C801DF91CF911F910F91FF90EF90DF9050
:100A4000CF900895CF93DF931F92CDB7DEB7698320
:100A50002091DF052223F9F020910206203258F080
:100A600021E030E0FC013383228390E080E00F90AE
:100A7000DF91CF9108958091E005E82FF0E0EF51EC
:100A8000FA4F998190838F5F8093E00580930206EF
:100A900081E090E0ECCF61E0CE0101960E94750309
:100AA000F7CFCF93DF93EC018B818823A1F088816E
:100AB00091E09093DF05809301061092E00510927B
:100AC000020681E00E94DB0391E0811190E0892F12
:100AD000DF91CF9108951092920510929105109296
:100AE000E005109202060E949C038FE592E090932D
:100AF000B7048093B60480E692E09093B5048093A7
:100B0000B40481E08B83CE010E945105982F81119E
:100B1000CECFDDCFFC01908190539A3008F090E069
:100B2000818180532AE0929F800D11240895DC0179
:100B300050E0E8E6F0E081E0861730F49491490F48
:100B4000511D8F5F3196F8CF633038F0CD0183703F
:100B50009927892B11F44F5F5F4F9D012D5F3F4F08
:100B600036952795369527956DE671E0A69FC001CD
:100B7000A79F900DB69F900D11240197820F931F90
:100B8000840F951F0895EF92FF920F931F93CF93B9
:100B9000DF93EC0188814A81698190E00E9497058A
:100BA0009C01A8E1B0E00E94D21F2B817B018C0147
:100BB000E20EF11C011D111DA8019701ACE3B0E08C
:100BC0000E94C71F2C817B018C01E20EF11C011DCC
:100BD000111DA80197010E94C71F2D81620F711D71
:100BE000811D911DDF91CF911F910F91FF90EF908B
:100BF0000895089590E080E008952F923F924F92DB
:100C00005F926F927F928F929F92AF92BF92CF929C
:100C1000DF92EF92FF920F931F93CF93DF935C01CC
:100C20001B016A01F12CE12CD50114968D919C9148
:100C300086010E191F098017910708F48C01F50130
:100C4000D0810E94FD012B013C018091D9058111C9
:100C500072C0C02F013208F0C0E2F1E0F093D90574
:100C600021E0C601801B910BE816F90608F420E08C
:100C70002093D8058FEF8093D7051092D6058C0F5F
:100C80008093D505A1E0A093B4058091B405DD0F54
:100C9000D82BD093B4058091B305813009F090C072
:100CA0001092B3050E94FD012B013C018091B40517
:100CB0008093BB008091DB059091DC05A091DD0560
:100CC000B091DE05892B8A2B8B2BA1F00E94FD01B0
:100CD0002091DB053091DC054091DD055091DE056A
:100CE00064197509860997092617370748075907B0
:100CF00008F442C08091BC0083FDD8CFB5ECB0931E
:100D0000BC000E94FD012B013C018091D90581307E
:100D100009F45AC08091D6058C1710F4C091D605FD
:100D2000A5EBB5E0E3E9F5E080E08C1751F19D918A
:100D300091938F5FFACF8091DB059091DC05A091B4
:100D4000DD05B091DE05892B8A2B8B2B09F47DCF35
:100D50000E94FD012091DB053091DC054091DD050D
:100D60005091DE056419750986099709261737071A
:100D70004807590708F069CF8091DA050E94BA0345
:100D8000C0E010929205C0939105C017110609F0BA
:100D900057C041018E0C9F1CE401CE0188199909AE
:100DA0008017910798F5D50111968D919C91DC01E2
:100DB000ED91FC910284F385E02D09958993EDCFA7
:100DC000E5EEE093BC009DCF8091DB059091DC05C2
:100DD000A091DD05B091DE05892B8A2B8B2B09F4C0
:100DE00094CF0E94FD012091DB053091DC054091FC
:100DF000DD055091DE0564197509860997092617E6
:100E000037074807590708F080CFB6CFE00EF11E2C
:100E1000EC14FD0408F408CF81E0DF91CF911F911D
:100E20000F91FF90EF90DF90CF90BF90AF909F9089
:100E30008F907F906F905F904F903F902F9008958C
:100E400080E0EBCF1F93CF93DF93DC011496ED91FD
:100E5000FC91E417F50710F490E01FC0122FEA018F
:100E6000FC0181819281208131E03093DF05209364
:100E700001061092E00510920206DC01ED91FC9152
:100E80000280F381E02D0995C817D90729F7812F32
:100E90000E94DB0391E08111DFCF892FDF91CF9199
:100EA0001F910895CF93DF93EC0160E08E810E9443
:100EB000810161E08E810E94810160E08E810E944B
:100EC00081018BE891E00197F1F7DF91CF910895CF
:100ED000CF92DF92EF92FF920F931F93CF93DF9306
:100EE0006C017C0187E0E80EF11CD0E0C0E0062F29
:100EF00010E0B8010C2E02C0759567950A94E2F7D0
:100F00006170F70181917F010E9481012196C430B7
:100F1000D10579F7C601DF91CF911F910F91FF9015
:100F2000EF90DF90CF900C945207CF92DF92EF9228
:100F3000FF920F931F93CF93DF93EC01F62E642F54
:100F40008C810E9481018D818F3F19F060E00E94A9
:100F500081010F2D10E08F8584FF25C06E0187E091
:100F6000C80ED11CF12CE12CB8010E2C02C07595D5
:100F700067950A94E2F76170F60181916F010E9412
:100F80008101FFEFEF1AFF0A88E0E816F10461F72C
:100F9000CE01DF91CF911F910F91FF90EF90DF90E5
:100FA000CF900C945207B80184E0759567958A95A7
:100FB000E1F7CE010E9468076F2DCE01DF91CF913E
:100FC0001F910F91FF90EF90DF90CF900C946807E6
:100FD00040E0682F8BE197E00C94950781E00E9438
:100FE000E8078BE39FE10197F1F70895CF93DF9333
:100FF000823029F490912A07986090932A07809371
:101000002E0710922F0780E48093300780E18093B1
:10101000310780E58093320761E080911F070E94CD
:10102000AF01809120078F3F19F061E00E94AF016E
:1010300061E0809121070E94AF01CBE1D7E09E01E2
:101040002B51374080912A0784FD0BC084E090E04B
:1010500021962817390744F461E08E810E94AF0180
:10106000EECF88E090E0F4CF8BE39DE00197F1F7BD
:1010700060E080911F070E94810160E0809121075C
:101080000E948101809120078F3F19F060E00E944B
:10109000810180912A0784FD34C063E08BE197E0F1
:1010A0000E946807CBE4D6E4CE010197F1F763E034
:1010B0008BE197E00E9468072197F1F763E08BE1ED
:1010C00097E00E94680783E592E00197F1F762E0FC
:1010D0008BE197E00E94680780912A0780620E9456
:1010E000E80784E080932B078CE00E94E8070E94C9
:1010F000EE0782E080932C0786E0DF91CF910C947D
:10110000E80780620E94E8078BE496E40197F1F714
:1011100080912A0780620E94E80783E592E00197A8
:10112000F1F780912A0780620E94E807D5CF90915D
:101130002E07691710F06FEF690FE62FF0E0E55EFC
:10114000F84F9489890F80680C94E807EBE1F7E089
:1011500080898E7F808B88600C94E807EBE1F7E054
:1011600080898D7F808B88600C94E807EBE1F7E045
:101170008089982F9160908B89600C94E807EBE14F
:10118000F7E08089982F9260908B8A600C94E80732
:1011900041E00E94950781E090E00895FB010190F5
:1011A0000020E9F73197AF01461B570BDC01ED91A9
:1011B000FC910280F381E02D09948F929F92AF926F
:1011C000BF92EF92FF920F931F93CF93DF93CDB710
:1011D000DEB7A1970FB6F894DEBF0FBECDBF7C017E
:1011E000FA01CB0119A2223008F42AE08E010F5D2A
:1011F0001F4F822E912CB12CA12CBF01A50194016F
:101200000E943421F901CA016A300CF5605DD801F1
:101210006E938D01232B242B252B79F790E080E012
:10122000109721F0BD01C7010E94CE08A1960FB60C
:10123000F894DEBF0FBECDBFDF91CF911F910F910C
:10124000FF90EF90BF90AF909F908F900895695C52
:10125000DECFCF92DF92EF92FF920F931F93CF9347
:10126000DF936B01770FEE08FF08F7FE1BC0EC0160
:101270006DE20E9461028C0144275527BA014C1986
:101280005D096E097F092AE0CE010E94DD08800F0A
:10129000911FDF91CF911F910F91FF90EF90DF9001
:1012A000CF9008952AE0B701A601DF91CF911F9159
:1012B0000F91FF90EF90DF90CF900C94DD08CF93CB
:1012C000DF93BC0183E096E00E94CE08EC0166E962
:1012D00071E083E096E00E94CE088C0F9D1FDF91A5
:1012E000CF910895CF93DF93BC0183E096E00E94F5
:1012F0002909EC0166E971E083E096E00E94CE08DE
:101300008C0F9D1FDF91CF9108952F923F924F92A6
:101310005F926F927F928F929F92AF92BF92CF9285
:10132000DF92EF92FF921F93CF93DF93EC016A015C
:101330007B01722EAB019601CB01B6010E94FB200E
:1013400069E971E0811126C046015701E894B7F8B8
:101350002FEF3FEF4FE75FE7C501B4010E94FB208D
:1013600081110CC02FEF3FEF4FE75FE7C501B401DC
:101370000E94A31E6DE971E0181664F02FEF3FEF95
:101380004FE75FE4C701B6010E94F6201816B4F4D7
:1013900061EA71E0CE01DF91CF911F91FF90EF9054
:1013A000DF90CF90BF90AF909F908F907F906F9085
:1013B0005F904F903F902F900C94CE082FEF3FEF0F
:1013C0004FE75FECC701B6010E94A31E87FDE0CF87
:1013D00020E030E0A901C701B6010E94A31E312C14
:1013E000212C87FF09C06DE2CE010E9461021C0121
:1013F000F7FAF094F7F8F09410E060E070E080E025
:101400009FE3711641F020E030E040E251E40E9499
:101410004E201F5FF6CFA70196010E94E21F2B010D
:101420003C010E94C7204B015C012AE0BC01A401E1
:10143000CE010E94DD087C01E20CF31C1123C1F1F6
:10144000C501B4010E94A81E9B01AC01C301B201F9
:101450000E94E11F4B015C016EE2CE010E9461021D
:10146000E80EF91E115020F120E030E040E251E496
:10147000C501B4010E94091F2B013C010E94C72035
:101480004B01B12CA12C2AE0B501A401CE010E9490
:10149000DD08E80EF91EC501B4010E94A81E9B01DB
:1014A000AC01C301B2010E94E11F4B015C01DACF24
:1014B000C701DF91CF911F91FF90EF90DF90CF9008
:1014C000BF90AF909F908F907F906F905F904F9064
:1014D0003F902F9008950C94CE0885ED8093BC002A
:1014E0008091DB059091DC05A091DD05B091DE05D2
:1014F0000796A11DB11D23E0B695A79597958795F1
:101500002A95D1F72091BC0024FD03C01092D90583
:1015100008954091DB055091DC056091DD057091E7
:10152000DE05452B462B472B69F30097A105B10536
:1015300041F02AE22A95F1F700C00197A109B1090B
:10154000E1CF8091DA050C94BA031F920F920FB687
:101550000F9211242F933F938F939F93AF93BF9339
:1015600080918D0590918E05A0918F05B091900589
:101570003091880523E0230F2D3758F50196A11DE2
:10158000B11D2093880580938D0590938E05A093BF
:101590008F05B09390058091890590918A05A0915F
:1015A0008B05B0918C050196A11DB11D8093890515
:1015B00090938A05A0938B05B0938C05BF91AF9152
:1015C0009F918F913F912F910F900FBE0F901F9081
:1015D000189526E8230F0296A11DB11DD2CF1F92A8
:1015E0000F920FB60F9211242F933F934F935F9357
:1015F0006F937F938F939F93AF93BF93EF93FF93DB
:1016000083E096E00E94E602FF91EF91BF91AF91D7
:101610009F918F917F916F915F914F913F912F910A
:101620000F900FBE0F901F9018951F920F920FB63C
:101630000F9211242F938F939F93EF93FF93E09139
:101640001306F09114068081E0911906F0911A06B4
:1016500082FD1BC0908180911C068F5F8F7320914B
:101660001D06821741F0E0911C06F0E0ED5FF94F96
:10167000958F80931C06FF91EF919F918F912F91F1
:101680000F900FBE0F901F9018958081F4CF1F927E
:101690000F920FB60F9211242F933F934F935F93A6
:1016A0006F937F938F939F93AF93BF93EF93FF932A
:1016B0008091B900887F803609F44AC0F0F58832FD
:1016C00009F4A7C018F5803109F49BC0B8F4882349
:1016D00009F4F9C0883009F494C0FF91EF91BF91EB
:1016E000AF919F918F917F916F915F914F913F91BA
:1016F0002F910F900FBE0F901F901895883109F40D
:1017000088C0803251F78093D70514C0803409F423
:101710009DC040F48033B9F38833F9F68093D70540
:1017200085ECB0C0803509F485C0883509F496C0D1
:10173000883499F60E946D0AD0CF883909F48CC09C
:1017400038F5883729F050F4883611F0803729F6BB
:1017500083E08093D9051092B30457C0883809F408
:101760007BC0803919F0803809F0B7CF8091B3047D
:10177000803208F071C0E091B30481E08E0F809355
:10178000B3048091BB00F0E0ED56FB4F80833DC079
:10179000803B39F0E0F4803A09F479C0883A09F0E6
:1017A0009CCF84E08093D90510929204109291040A
:1017B000E091B604F091B7040995809191048111EC
:1017C0000FC081E0809391041092710409C0803CA5
:1017D00009F4A6CF883C09F4A3CF883B09F07DCF5C
:1017E000E091920481E08E0F80939204F0E0EF5834
:1017F000FB4F80818093BB00909192048091910473
:1018000029C08091B4058093BB0085EC8093BC0017
:1018100064CF9091D6058091D505981758F5E09141
:10182000D60581E08E0F8093D605F0E0EB54FA4F99
:101830008081E9CFE091D60581E08E0F8093D605B7
:101840008091BB00F0E0EB54FA4F80839091D60575
:101850008091D5059817C8F285E8D8CFE091D605D4
:1018600081E08E0F8093D6058091BB00F0E0EB54B1
:10187000FA4F80838091D80581115CCF81E08093FD
:10188000B30584EA8093BC001092D90526CF85EC7D
:101890008093BC001092D9058091B304803230F45B
:1018A000E091B304F0E0ED56FB4F10826091B30479
:1018B00070E0E091B404F091B50483E994E00995F7
:1018C0001092B3040ACF1092D70534CF10920606B7
:1018D0001092050688EE93E0A0E0B0E08093070642
:1018E00090930806A0930906B0930A0620E631E01B
:1018F000309304062093030625EC30E03093100665
:1019000020930F0624EC30E030931206209311064A
:1019100020EC30E0309314062093130621EC30E0E5
:10192000309316062093150622EC30E0309318060B
:101930002093170626EC30E030931A062093190600
:1019400010921C0610921D0610921E0610921F0681
:101950001092A3061092A2068093A4069093A50667
:10196000A093A606B093A70682E791E09093A10604
:101970008093A00610921E0710921D078EE891E03A
:1019800090931C0780931B078EE080931F078FEFB7
:10199000809320078CE0809321078BE080932207BF
:1019A0008AE08093230789E08093240788E080936E
:1019B00025071092260710922707109228071092E9
:1019C000290710922A0781E00E94F6071092AE06BE
:1019D0001092B2061092B1061092B30684E891E01C
:1019E0009093AD068093AC06E8ECF6E0108214828A
:1019F00013821582369687E0E430F807B9F782E45F
:101A000091E090930F0780930E078EE391E09093FF
:101A100011078093100784E08093120780931307C7
:101A200086E491E090930D0780930C078AE090E0A4
:101A3000909315078093140784EF91E09093170714
:101A40008093160710921A07109219071092080730
:101A50001092090710920A0710920B0710921807AC
:101A60000895CF93DF93CDB7DEB76E970FB6F89496
:101A7000DEBF0FBECDBF789484B5826084BD84B5CF
:101A8000816084BD85B5826085BD85B5816085BD79
:101A900080916E00816080936E0010928100809131
:101AA00081008260809381008091810081608093B9
:101AB0008100809180008160809380008091B100DE
:101AC00084608093B1008091B00081608093B00009
:101AD00080917A00846080937A0080917A0082609D
:101AE00080937A0080917A00816080937A0080915F
:101AF0007A00806880937A001092C100E09113060A
:101B0000F091140682E08083E0910F06F0911006B8
:101B10001082E0911106F09112068FEC80831092F2
:101B20001B06E0911706F091180686E08083E0918D
:101B30001506F0911606808180618083E09115067C
:101B4000F0911606808188608083E0911506F091FF
:101B50001606808180688083E0911506F091160654
:101B600080818F7D808361E080E00E94AF0160E032
:101B700080E00E9481018091B8049091B90400979F
:101B800011F00E94F82186E090E00E945C217C0127
:101B900088E6D7018C9380EA96E012969C938E9308
:101BA000119713961C92139780E290E015969C93E0
:101BB0008E931497F092B904E092B80410929205B3
:101BC000109291051092E005109202060E949C036B
:101BD0008FE592E09093B7048093B60480E692E09C
:101BE0009093B5048093B40481E0F7018383C70127
:101BF0000E945105811109C085EA91E00E945F09A8
:101C000083E096E00E945503FFCF4BE050E06CE785
:101C100070E09E012F5F3F4F1901C9010E949A1E7B
:101C2000CE010A960E948A05082FE981E154E3312A
:101C300018F50E2E000CFF0BE05EF14F0C945621B0
:101C4000230F3C0E3C0E370F3C0E390F3C0E3C0E62
:101C50003C0E330E3C0E3C0E2A0F350F330F3C0E5C
:101C60003C0E3C0E310F8A8111E0813629F08B81C8
:101C700016E08E3609F017E0CE0105960E948A051F
:101C8000F82E48E050E063E770E0C1010E949A1E20
:101C9000C1010E948A05E82ECE0104960E948A05A1
:101CA000D82ECE0107960E948A05382F88E0D101F0
:101CB0001D928A95E9F72AE0832F622F0E94002166
:101CC000982F880F890F880F830F8A838D2D0E948C
:101CD0000021982F880F890F880F8D0D8B838E2DF3
:101CE0000E940021982F880F890F880F8E0D8C83FA
:101CF0004F2D612F802F90E00E949705069667E098
:101D000070E00E940C21811101C087E08D832AE0E0
:101D10008F2D622F0E940021982F880F890F880F26
:101D20008F0D8E83812F0E940021982F990F890F8C
:101D3000880F180F1F83802F0E940021982F880F73
:101D4000890F880F800F888721E048E050E0B101BB
:101D50008091B8049091B9040E9422071FE01E8F61
:101D600021E041E050E0BE01625E7F4F8091B80407
:101D70009091B9040E94220741E050E0BE01645FE7
:101D80007F4F8091B8049091B9040E94FD058C8525
:101D90001C878F778D8721E042E050E0BE01645FB1
:101DA0007F4F8091B8049091B9040E94220782E08D
:101DB0000E94F60760E085E00E94970867EB71E0FB
:101DC0008BE197E00E946B0A64EF71E080E090E0A5
:101DD0000E9422020E94EE0781E0809318078FB7CD
:101DE000F89440918D0550918E0560918F0570910A
:101DF00090058FBF8091080790910907A0910A076D
:101E0000B0910B07481B590B6A0B7B0B8091140791
:101E100090911507B0E0A0E084179507A607B707D3
:101E200008F063C110E080911207181720F5E091C7
:101E30000E07F0910F07E10FF11D62E080810E9413
:101E4000AF011F5FF0CF8B8114E0823709F414CF0C
:101E500018E012CF8B8113E0823709F40DCF15E023
:101E60000BCF19E009CF1AE007CF1BE005CF1CE02C
:101E700003CF12E001CF912C80911307981608F040
:101E800063C0E92CF12CE0911007F0911107EE0DE1
:101E9000FF1D61E080810E94AF01E0911007F09189
:101EA0001107EE0DFF1D60E080810E94810181E03D
:101EB00090E0A0E0B0E0092C04C0880F991FAA1F91
:101EC000BB1F0A94D2F75C016C01C094D094812CA2
:101ED00080911207881608F5082D10E0E0910E0792
:101EE000F0910F07E00FF11F80810E9458010C5FF5
:101EF0001F4F000F111FF801E455F94F892B41F4D2
:101F0000808191818A299B29918380838394E0CF6A
:101F1000808191818C219D21F7CFE0911007F09174
:101F20001107EE0DFF1D61E080810E94810180910B
:101F3000100790911107E80EF91E60E0F70180810B
:101F40000E94AF01939498CFECEACE2EE6E0DE2E0D
:101F500086018FEF9FEFD8015F962D913C9190976E
:101F6000232B49F45C961C925C975E969C938E930F
:101F70005D9791961C920A5F1F4FE8EEF6E0E0171E
:101F8000F10749F7B12C80911207B81608F054C038
:101F9000A12CEB2CF12CEE0CFF1C97012C54394F8B
:101FA000790120911307A21608F044C0D7016D9162
:101FB0007C910A2C02C0769567950A94E2F7B29E4E
:101FC000900111242A0D311DECEAF6E080E0458DE8
:101FD000568D2417350711F40C94971E8F5F369693
:101FE0008A30A9F760FF24C0ECEAF6E090E080E0D8
:101FF000448D411118C0E0910C07F0910D07E20FDC
:10200000F31F4081B6E0B89FF001B99FF00D112495
:10201000E455F94F448F368F258F10A2178E61E05B
:102020000E94BF0005C0019636968A30910501F7DF
:10203000A394B7CFB394A7CF80E0F60191A19111FB
:10204000892FF6E0CF0ED11C0C151D05B1F79FB7F7
:10205000F89440918D0550918E0560918F05709197
:1020600090059FBF409308075093090760930A07A4
:1020700070930B078823C9F18091CD068823A9F1BD
:10208000E090CB06F090CC0621E0E216F10469F571
:102090001091C806113409F4C0C0123409F0FEC012
:1020A0000E94EE0760E080E00E94970860EE71E019
:1020B0008BE197E00E946B0A61E080E00E94970844
:1020C00060EF71E08BE197E00E946B0A0E94AE081E
:1020D0000E94A608F0923B01E0923A018FEF9FEF39
:1020E00090933D0180933C01C0C01092180710E00E
:1020F000E0903C01F0903D0131E0E316F10409F07D
:1021000034C1113309F0F2C00E94EE0760E080E0B4
:102110000E94970860E072E08BE197E00E946B0AF2
:1021200040912A0150912B0160912C0170912D0159
:1021300022E08BE197E00E9485090E94BF080E947F
:10214000B608F0923901E0923801F0928705E092EA
:1021500086058FEF9FEF90933D0180933C01109295
:102160008505109284051092830510928205809156
:10217000320190913301019709F02BC2133409F019
:1021800028C28FEF9FEF90933501809334018091A7
:1021900028019091290190937F0580937E0580917D
:1021A00026019091270190937D0580937C0542E163
:1021B000E42E41E0F42E5CE0C52E51E0D52E68E11E
:1021C000A62E61E0B62EF0E0E0E030E020E084E60C
:1021D00090E0AE14BF0409F453C1D7016D917D9115
:1021E0007D01689FA001699F500D789F500D1124BB
:1021F000E40FF51FD6016D917D916D01869FA001C1
:10220000879F500D969F500D1124240F351F6AE0B3
:1022100070E00E942021CB01DCCF0E94EE0760E03D
:1022200080E00E9497086EEB71E08BE197E00E94DE
:102230006B0A0E94AE080E94A60861E080E00E943E
:1022400097086FEC71E08BE197E00E946B0A0E94A7
:10225000AE080E94A608F0923D01E0923C018FEF8B
:102260009FEF90933B0180933A01909339018093C3
:102270003801909337018093360190933501809314
:102280003401909333018093320190933101809314
:10229000300190932F0180932E012ACF143409F03E
:1022A00027CF0E94EE078FEF9FEF90933D01809321
:1022B0003C0190933B0180933A01909339018093C4
:1022C00038019093370180933601909335018093C4
:1022D0003401909333018093320190932F018093C6
:1022E0002E01909331018093300102CF1233E9F532
:1022F0000E94EE0760E080E00E9497086AE072E0CA
:102300008BE197E00E946B0A60912801709129018E
:102310008BE197E00E94290961E080E00E94970824
:1023200068E172E08BE197E00E946B0A6091260100
:10233000709127018BE197E00E94290960E08DE010
:102340000E9497080E94BF080E94B6088FEF9FEF77
:1023500090933D0180933C01F0923501E09234016D
:10236000F0928705E0928605FACEE0903A01F0906F
:102370003B0151E0E516F10409F0F9CE113309F003
:1023800075C00E94EE0760E080E00E94970866E258
:1023900072E08BE197E00E946B0A609124017091DA
:1023A00025018BE197E00E9429096FE272E08BE141
:1023B00097E00E946B0A60912201709123018BE1EA
:1023C00097E00E9429096AE573E08BE197E00E949B
:1023D0006B0A60912001709121018BE197E00E94CE
:1023E000290961E080E00E94970861E372E08BE1D7
:1023F00097E00E946B0A61E088E00E949708609174
:102400001E0170911F018BE197E00E9429096FE284
:1024100072E08BE197E00E946B0A60911C01709161
:102420001D018BE197E00E9429096AE573E08BE1C9
:1024300097E00E946B0A60911A0170911B018BE179
:1024400097E00E94290960E088E00E9497080E94B6
:10245000BF080E94B6088FEF9FEF90933B018093D7
:102460003A01F0923101E09230017ACF123309F053
:102470007ECE8FEF9FEF909319018093180177CE56
:1024800083E090E09093810580938005F09329018B
:10249000E0932801309327012093260168E372E03E
:1024A00083E096E00E946B0A8091280190912901B7
:1024B0000E9472096FE372E083E096E00E946B0A6B
:1024C00080912601909127010E9472092091280194
:1024D00030912901C901895C9109CB9758F4809109
:1024E000260190912701AC01485C51094C335105FC
:1024F00008F464C081E090E090937B0580937A05B6
:102500000E94AE080E94A6088FEF9FEF90933301C0
:10251000809332010E94EE0780913601909137013D
:10252000019709F045C3133409F042C38FEF9FEFC1
:10253000909339018093380180912A0190912B0169
:10254000A0912C01B0912D01809372059093730599
:10255000A0937405B093750500E0602E01E0702E25
:102560008CE0482E81E0582EC12CD12C7601812C94
:10257000912C90E8A92E9FE3B92E4614570409F434
:1025800049C1F30161917191819191913F01A5013F
:1025900094010E94091F9B01AC01C701B6010E9472
:1025A000E21F6B017C012DEC3CEC4CEC5DE3C501C2
:1025B000B4010E94091F4B015C01DFCF8217930712
:1025C0000CF49ECF81E090E090937905809378059C
:1025D00097CF8091340190913501019709F09CCFFC
:1025E000112309F499CF8091860590918705813058
:1025F0009105A9F460E08CE00E9497086AE573E019
:102600008BE197E00E946B0A109287051092860575
:1026100081E090E090933301809332017DCF892B4C
:10262000B9F7812F012E000C990BC0979093770575
:10263000809376050A9760F78091840590918505CF
:10264000612F03970CF076C08BE197E00E94610246
:1026500080918405909185050196909385058093DE
:10266000840566E472E083E096E00E946B0A809144
:102670008205909183050E947209E0918205F09194
:102680008305EE0FFF1FEE5EFE4F80917605909161
:102690007705918380836BE472E083E096E00E948B
:1026A0006B0A6BE572E083E096E00E946B0A609132
:1026B00012017091130183E096E00E9429096EE5F2
:1026C00072E083E096E00E946B0A609114017091C1
:1026D000150183E096E00E9429096EE572E083E02F
:1026E00096E00E946B0A609116017091170183E0D9
:1026F00096E00E94290981E692E00E945F0980919C
:1027000082059091830501969093830580938205BD
:10271000039724F01092830510928205809184051E
:1027200090918505039709F073CF61E08DE00E94D9
:1027300097086ECF8BE197E00E946102809184053B
:102740009091850501969093850580938405E0918D
:102750008205F0918305EE0FFF1FE45FFE4F80912D
:102760007605909177059183808365E672E083E03A
:1027700096E00E946B0A6BE572E083E096E00E94AF
:102780006B0A60910C0170910D0183E096E00E944C
:1027900029096EE572E083E096E00E946B0A609181
:1027A0000E0170910F0183E096E00E9429096EE509
:1027B00072E083E096E00E946B0A609110017091D4
:1027C000110183E096E00E94290981E692E00E94CF
:1027D0005F09809182059091830501968330910570
:1027E000A4F4909383058093820580918405909151
:1027F0008505069709F00CCF60E08DE00E949708F0
:10280000109285051092840503CF109283051092D3
:102810008205EBCF83E090E0909381058093800563
:10282000C0922A01D0922B01E0922C01F0922D014E
:1028300066E772E083E096E00E946B0A40912A010D
:1028400050912B0160912C0170912D0122E083E0C9
:1028500096E00E94850966E971E083E096E00E94B7
:10286000CE08C0902A01D0902B01E0902C01F0906E
:102870002D0120E030E040EA50E4C701B6010E949B
:10288000F62018164CF020E030E0A901C701B6018F
:102890000E94A31E87FF06C081E090E0909371051F
:1028A000809370050E94AE080E94A6088FEF9FEFEC
:1028B00090933701809336010E94EE0780912E019C
:1028C00090912F01019709F07AC6133409F077C669
:1028D0008FEF9FEF9093310180933001109281052B
:1028E00010928005809124019091250190936F05AD
:1028F00080936E05809120019091210190936D0548
:1029000080936C05809122019091230190936B0537
:1029100080936A0580911E0190911F019093690533
:102920008093680580911A0190911B01909367052F
:102930008093660580911C0190911D01909365051F
:1029400080936405512C412C712C612CF12CE12CCD
:10295000D12CC12CB12CA12C912C812C0AE010E09F
:10296000809180059091810502970CF0EAC165E99C
:1029700072E083E096E00E946B0AC8010E9472092F
:1029800069E972E083E096E00E946B0A809180051D
:10299000909181050E947209809180059091810536
:1029A000880F991FFC01E05AFA4F40815181049F22
:1029B0009001059F300D149F300D1124820E931E3F
:1029C000FC01E45AFA4F40815181049F9001059F18
:1029D000300D149F300D1124A20EB31EFC01E85AD5
:1029E000FA4F40815181049F9001059F300D149F43
:1029F000300D1124C20ED31EFC01EC5AFA4F408157
:102A00005181049F9001059F300D149F300D1124BA
:102A1000E20EF31EFC01E05BFA4F40815181049FFE
:102A20009001059F300D149F300D1124620E731E0E
:102A3000845B9A4FFC0120813181029FC001039F7A
:102A4000900D129F900D1124480E591EC8016AE086
:102A500070E00E9420218B016DE972E083E096E036
:102A60000E946B0AE0918005F0918105EE0FFF1F37
:102A7000E05AFA4F808191810E94720966EB72E000
:102A800083E096E00E946B0AC4010E9472096DE91E
:102A900072E083E096E00E946B0AE0918005F0917D
:102AA0008105EE0FFF1FE85AFA4F808191810E9445
:102AB00072096DEC72E083E096E00E946B0AC60139
:102AC0000E9472096DE972E083E096E00E946B0A51
:102AD000E0918005F0918105EE0FFF1FE45AFA4F57
:102AE000808191810E94720965EE72E083E096E038
:102AF0000E946B0AC5010E9472096DE972E083E0D1
:102B000096E00E946B0AE0918005F0918105EE0F3E
:102B1000FF1FEC5AFA4F808191810E9472096FEF7A
:102B200072E083E096E00E946B0AC7010E9472097E
:102B30006DE972E083E096E00E946B0AE091800507
:102B4000F0918105EE0FFF1FE45BFA4F80819181C8
:102B50000E94720965E173E083E096E00E946B0ACF
:102B6000C2010E9472096DE972E083E096E00E9462
:102B70006B0AE0918005F0918105EE0FFF1FE05B8D
:102B8000FA4F808191810E9472096CE273E083E0C8
:102B900096E00E946B0AC3010E9472098091800531
:102BA0009091810501969093810580938005D8CE00
:102BB0008091380190913901019709F07FCE11235E
:102BC00009F47CCE8091860590918705813091052E
:102BD00079F460E088E00E9497086AE573E08BE191
:102BE00097E00E946B0A109287051092860566CEC8
:102BF000892B09F063CE812F012E000C990BC09711
:102C000090937705809376050A9708F082C0612F2C
:102C10008BE197E00E946102809184059091850587
:102C2000019690938505809384058130910509F084
:102C300077C06EE28BE197E00E946102E09082052E
:102C4000F0908305EE0CFF1CEE0CFF1C970120504A
:102C50003F4F79016091760570917705072E000C42
:102C6000880B990B0E94AA1ED7016D937D938D93BB
:102C70009C93139760E872E083E096E00E946B0AF1
:102C80006BE572E083E096E00E946B0A40910001E0
:102C900050910101609102017091030122E083E0F3
:102CA00096E00E9485096EE572E083E096E00E945E
:102CB0006B0A4091040150910501609106017091E9
:102CC000070122E083E096E00E9485096EE572E04C
:102CD00083E096E00E946B0A40910801509109013F
:102CE00060910A0170910B0122E083E096E00E945E
:102CF000850981E692E00E945F09809182059091AA
:102D00008305019683309105BCF4909383058093ED
:102D1000820581E090E09093370180933601CECD1B
:102D200003970CF48BCF109285051092840560E018
:102D300089E00E94970882CF109283051092820545
:102D4000E8CF9092250180922401B0922101A092B7
:102D50002001D0922301C0922201F0921F01E09243
:102D60001E0170921B0160921A0150921D01409247
:102D70001C0165E473E083E096E00E946B0A6091B9
:102D800024017091250183E096E00E9429096FE2F9
:102D900072E083E096E00E946B0A609122017091DC
:102DA000230183E096E00E9429096AE573E083E04D
:102DB00096E00E946B0A80912001909121010E946F
:102DC000720961E573E083E096E00E946B0A60910E
:102DD0001E0170911F0183E096E00E9429096FE2B5
:102DE00072E083E096E00E946B0A60911C01709192
:102DF0001D0183E096E00E9429096AE573E083E003
:102E000096E00E946B0A80911A0190911B010E942A
:102E100072092091240130912501203231054CF5B1
:102E2000A0912001B0912101AD33B10514F560915D
:102E300022017091230169317105DCF480911E013A
:102E400090911F0180329105A4F4E0911A01F09154
:102E50001B01ED33F1056CF440911C0150911D01F3
:102E60004931510534F42115310519F0009709F065
:102E70008CC381E090E090934B0580934A0580914C
:102E80004A0590914B05892B61F4809148059091FA
:102E90004905892B31F481E090E0909319018093EA
:102EA00018010E94AE080E94A6088FEF9FEF909332
:102EB0002F0180932E010E94EE0780917005909162
:102EC0007105019709F0B0C50E94EE078091720567
:102ED00090917305A0917405B091750580932A01B6
:102EE00090932B01A0932C01B0932D0160E085E01D
:102EF0000E9497086AED73E08BE197E00E946B0AED
:102F000061E080E00E94970861EE73E08BE197E05A
:102F10000E946B0A10927105109270056CED75E0BD
:102F200080E090E00E9422020E94EE0780913C0126
:102F300090913D01019609F0A8C080913A019091CD
:102F40003B01019609F0A1C08091380190913901AF
:102F5000019609F09AC08091340190913501019653
:102F600009F093C08091300190913101019609F0F0
:102F70008CC08091360190913701019609F085C08F
:102F80008091320190913301019609F07EC08091C9
:102F90002E0190912F01019609F077C060E080E04A
:102FA0000E94970867E072E08BE197E00E946B0A4D
:102FB0004091440550914505609146057091470543
:102FC00022E08BE197E00E94850960E074E08BE1EC
:102FD00097E00E946B0A61E080E00E94970862E03F
:102FE00074E08BE197E00E946B0A6091420570915A
:102FF00043058BE197E00E94290965E074E08BE1CD
:1030000097E00E946B0A60E088E00E94970867E002
:1030100074E08BE197E00E946B0A60914205709129
:103020004305072E000C880B990B0E94AA1E2091C5
:1030300044053091450540914605509147050E9451
:10304000091FAB01BC0122E08BE197E00E948509DA
:103050006AE074E08BE197E00E946B0A80911801AE
:103060009091190161E0019709F0E4C587E00E94A1
:1030700097086CE074E08BE197E00E946B0A62E3D2
:1030800070E080E090E00E94220260913E05709125
:103090003F0580914005909141050E94C0202B0181
:1030A00070933D0560933C0520ECE22E24E0F22E67
:1030B00034E2A32E35E0B32E870180E10E94EB01BC
:1030C0006C01BC01990F880B990B0E94AA1E60939A
:1030D00038057093390580933A0590933B0580E15C
:1030E0000E94EB01811592400CF4AAC5D801CD9243
:1030F000DC9261E070E080E090E00E9422020E5FCE
:103100001F4FA016B106C9F670E060E0D7018D919F
:103110009D917D01681779070CF4BC01F701329786
:10312000118210820E151F0589F77093BF046093FA
:10313000BE046115710509F487C5072E000C880BC4
:10314000990B0E94AA1E23EF34E045EB5FE30E9437
:103150004E2028E431E642ED53E40E94E11F21EEC7
:103160003AE744EB52EC0E944E2023E333E342E57E
:1031700053EC0E94091F23E333E342E553E40E942A
:10318000E21F60933E0570933F0580934005909346
:10319000410520E030E048EC52E460913E0570913A
:1031A0003F0580914005909141050E94A31E18168D
:1031B00044F010923E0510923F0510924005109287
:1031C0004105B201550C880B990B0E94AA1E209153
:1031D0003E0530913F0540914005509141050E94C8
:1031E000E21F20E030E040E05FE30E94091F6093AF
:1031F0003E0570933F05809340059093410561E241
:1032000074E083E096E00E946B0A40913E05509185
:103210003F05609140057091410522E083E096E012
:103220000E94850966E971E083E096E00E94CE087D
:1032300060913E0570913F05809140059091410558
:103240000E94C020709343056093420582E3C82E1C
:10325000D12CE12C94E0F92E10E000E081E10E94F5
:10326000EB01081719070CF48C018E159F050CF45F
:103270007C01B1E0CB1AD10889F781E10E94EB0112
:10328000B8016E197F09072E000C880B990B0E945C
:10329000AA1E20E030E040EA50E40E94091F20E02E
:1032A00030E040E85AE30E94091F2AE037ED43EE80
:1032B0005FE30E944E2024EF3DEF44E35FE30E9472
:1032C000091F20E030E04AE754E40E94091F20E093
:1032D00030E048EC52E40E944E202AE939E949E9FD
:1032E0005EE30E94E11F6B017C0120E030E0A90158
:1032F0000E94A31E87FDB1C4C0924405D09245052B
:10330000E0924605F09247054091440550914505ED
:10331000609146057091470522E083E096E00E94A7
:1033200085098BE294E00E945F0930912001409171
:103330002201509124012091BC048091BA04909103
:10334000BB04803DE7E09E0710F0805D9740888FCA
:10335000298F5A8F4B8F3C8F1D8E90911A0130917F
:103360001C0140911E018A8B2B8B4C8B3D8B9E8BBD
:103370001F8A19820091B8041091B90420E041E03D
:1033800050E0B101C8010E942207882331F047E0D4
:1033900050E0B101C8010E94FD0569816F777A8113
:1033A0002B813D81EE81EF774F81842F90E054E0B7
:1033B000959587955A95E1F7982F990F990FF82FC2
:1033C000F91B9F2F990F940F9C874E2F50E0F4E02C
:1033D00055954795FA95E1F7842F880F880F481B7C
:1033E000440F4E0F4D87832F90E0A4E0959587956D
:1033F000AA95E1F7982F990F990F891B880F830FD2
:103400008E87422F50E0B4E055954795BA95E1F785
:10341000842F880F880F481B440F420F4F87272F98
:1034200030E014E0359527951A95E1F7822F880F43
:10343000880F281B220F270F288B862F90E004E08F
:10344000959587950A95E1F7982F990F990F891B04
:10345000880F860F898B80914205909143059C01CE
:10346000295C31092B33310578F420912801309102
:1034700029018217930744F42091260130912701F6
:10348000281739070CF4F2C360E080E00E94810144
:103490006AEF70E080E090E00E942202FD84BE842A
:1034A000CF84D888E9880C8510E00053184FA80114
:1034B00070E060E02AE083E096E00E94DD0810936F
:1034C000BB040093BA046FE283E096E00E946102BD
:1034D0004F2D50E070E060E02AE083E096E00E942B
:1034E000DD088F2D90E09093BD048093BC046FE2C3
:1034F00083E096E00E9461024B2D50E070E060E0B6
:103500002AE083E096E00E94DD086FE283E096E027
:103510000E9461024C2D50E070E060E02AE083E000
:1035200096E00E94DD086FE283E096E00E9461026F
:103530004D2D50E070E060E02AE083E096E00E94CC
:10354000DD086FE283E096E00E9461024E2D50E0BC
:1035500070E060E02AE083E096E00E94DD0866E922
:1035600071E083E096E00E94CE0880E090E0892B35
:1035700011F40C94EC0E0E94D202882311F40C94E6
:10358000EC0E0E9400000C94EC0E2817390799F4F9
:10359000461757073CF481E090E0909349058093EB
:1035A00048056DCCAE17BF070CF469CC64177507DE
:1035B00009F065CCF0CF821793076CF360CC809153
:1035C000300190913101019709F077CC112309F472
:1035D00074CC809186059091870581309105A9F47E
:1035E00060E087E00E9497086AE573E08BE197E06E
:1035F0000E946B0A109287051092860581E090E088
:1036000090932F0180932E0158CC892BB9F7812FED
:10361000012E000C990BC097909377058093760547
:103620000A9760F7612F8BE197E00E946102209179
:10363000840530918505C901019690938505809395
:103640008405833091050CF023C1209182053091CF
:103650008305F901EE0FFF1FE05AFA4F40917605FE
:1036600050917705518340832F5F3F4F22303105C2
:103670000CF009C13093830520938205029731F441
:103680006FE272E08BE197E00E946B0A6CE573E0F9
:1036900083E096E00E946B0A8091820590918305F9
:1036A0000E94720960E673E083E096E00E946B0A74
:1036B00080918405909185050E94720964E673E00B
:1036C00083E096E00E946B0A6BE572E083E096E08F
:1036D0000E946B0A609160057091610583E096E03D
:1036E0000E9429096EE572E083E096E00E946B0A71
:1036F000609162057091630583E096E00E9429095C
:1037000081E692E00E945F0969E773E083E096E05A
:103710000E946B0A6BE572E083E096E00E946B0A00
:10372000609158057091590583E096E00E9429093F
:103730006EE572E083E096E00E946B0A60915A05A4
:1037400070915B0583E096E00E94290981E692E092
:103750000E945F096DE873E083E096E00E946B0AC7
:103760006BE572E083E096E00E946B0A60915C0575
:1037700070915D0583E096E00E9429096EE572E094
:1037800083E096E00E946B0A60915E0570915F0590
:1037900083E096E00E94290981E692E00E945F0999
:1037A00063EA73E083E096E00E946B0A6BE572E0E7
:1037B00083E096E00E946B0A609154057091550574
:1037C00083E096E00E9429096EE572E083E096E0CE
:1037D0000E946B0A609156057091570583E096E050
:1037E0000E94290981E692E00E945F0964EB73E080
:1037F00083E096E00E946B0A6BE572E083E096E05E
:103800000E946B0A60914C0570914D0583E096E033
:103810000E9429096EE572E083E096E00E946B0A3F
:1038200060914E0570914F0583E096E00E94290952
:1038300081E692E00E945F0966EC73E083E096E027
:103840000E946B0A6BE572E083E096E00E946B0ACF
:10385000609150057091510583E096E00E9429091E
:103860006EE572E083E096E00E946B0A609152057B
:103870007091530583E096E00E94290981E692E069
:103880000E945F09BBCE1092830510928205F6CE8E
:10389000A901425051094230510510F5209182058D
:1038A00030918305F901EE0FFF1FE85AFA4F40915E
:1038B000760550917705518340832F5F3F4F3093BA
:1038C0008305209382052230310524F01092830570
:1038D00010928205049709F0D9CE6AE573E0D2CE42
:1038E000A901445051094230510520F5209182052B
:1038F00030918305F901EE0FFF1FE45AFA4F409112
:10390000760550917705518340832F5F3F4F309369
:103910008305209382052230310524F0109283051F
:1039200010928205069709F0B1CE61E088E00E940E
:103930009708ACCEA901465051094230510500F517
:103940002091820530918305F901EE0FFF1FEC5A9B
:10395000FA4F4091760550917705518340832F5F50
:103960003F4F30938305209382052230310524F0A8
:103970001092830510928205089709F087CE80CEB9
:10398000285031092230310500F52091820530910F
:103990008305F901EE0FFF1FE45BFA4F40917605B6
:1039A00050917705518340832F5F3F4F30938305BC
:1039B000209382052230310524F010928305109265
:1039C00082050A9709F062CE88CF9C012B503109FD
:1039D0002230310508F05ACE2091820530918305BE
:1039E000F901EE0FFF1FE05BFA4F40917605509111
:1039F0007705518340832F5F3F4F3093830520939A
:103A000082052230310524F0109283051092820540
:103A10000C9709F03BCE60E088E00E949708109276
:103A200085051092840532CE80917A0590917B05B0
:103A3000019759F50E94EE0780917E0590917F05D0
:103A4000909329018093280180917C0590917D05B8
:103A5000909327018093260160E085E00E949708FB
:103A60006AED73E08BE197E00E946B0A61E080E011
:103A70000E94970861EE73E08BE197E00E946B0A69
:103A800010927B0510927A0549CA80917805909131
:103A90007905019759F50E94EE0780917E05909176
:103AA0007F05909329018093280180917C05909156
:103AB0007D05909327018093260160E085E00E94B8
:103AC00097086AED73E08BE197E00E946B0A61E072
:103AD00081E00E94970862EF73E08BE197E00E941B
:103AE0006B0A109279051092780518CA80914A05E0
:103AF00090914B05019709F04BC00E94EE07809111
:103B00006E0590916F05909325018093240180911B
:103B10006C0590916D059093210180932001809117
:103B20006A0590916B059093230180932201809107
:103B300068059091690590931F0180931E01809103
:103B400066059091670590931B0180931A018091FF
:103B500064059091650590931D0180931C0160E0C0
:103B600085E00E9497086AED73E08BE197E00E9480
:103B70006B0A61E080E00E94970861EE73E08BE1E0
:103B800097E00E946B0A10924B0510924A05C6C935
:103B90008091480590914905019709F0C7C90E9495
:103BA000EE0780916E0590916F05909325018093AB
:103BB000240180916C0590916D0590932101809373
:103BC000200180916A0590916B0590932301809369
:103BD0002201809168059091690590931F0180935F
:103BE0001E01809166059091670590931B0180935B
:103BF0001A01809164059091650590931D01809351
:103C00001C0160E085E00E9497086AED73E08BE19B
:103C100097E00E946B0A61E081E00E94970862EFE2
:103C200073E08BE197E00E946B0A109249051092B5
:103C3000480574C987E00E94970867E174E01BCAD1
:103C4000F8011182108255CA10923E0510923F056C
:103C500010924005109241059CCA109244051092A2
:103C6000450510924605109247054ECBC09044057D
:103C7000D0904505E0904605F090470520E030E003
:103C800040EA50E4C701B6010E94F620181674F00D
:103C900020912A0130912B0140912C0150912D014E
:103CA000C701B6010E94F62087FD09C060E080E0F0
:103CB0000E94810168EE73E080E090E0EDCB80919E
:103CC0001801909119018F3F980729F461E080E075
:103CD0000E948101E3CB019709F0E0CBCE010C9665
:103CE0000E94C3056B017C01CE0148960E94C3056A
:103CF000C616D706E806F906A0F0CE010C960E947B
:103D0000C3056B017C01CE0142960E94C305C61615
:103D1000D706E806F90628F48CE394E00E945F09D0
:103D2000D5CF84E594E00E945F0960E0D0CF617058
:103D30000C941010FB01DC0102C005900D92415063
:103D40005040D8F708950E94E51E08F481E00895D8
:103D5000E89409C097FB3EF4909580957095619525
:103D60007F4F8F4F9F4F9923A9F0F92F96E9BB27DB
:103D70009395F695879577956795B795F111F8CF57
:103D8000FAF4BB0F11F460FF1BC06F5F7F4F8F4FC2
:103D90009F4F16C0882311F096E911C0772321F0B8
:103DA0009EE8872F762F05C0662371F096E8862F50
:103DB00070E060E02AF09A95660F771F881FDAF7A7
:103DC000880F9695879597F90895990F0008550FD4
:103DD000AA0BE0E8FEEF16161706E807F907C0F091
:103DE00012161306E407F50798F0621B730B840B99
:103DF000950B39F40A2661F0232B242B252B21F473
:103E000008950A2609F4A140A6958FEF811D811D12
:103E100008950E941C1F0C948D1F0E947F1F38F074
:103E20000E94861F20F0952311F00C94761F0C94AD
:103E30007C1F11240C94C11F0E949E1F70F3959F3C
:103E4000C1F3950F50E0551F629FF001729FBB2791
:103E5000F00DB11D639FAA27F00DB11DAA1F649F2D
:103E60006627B00DA11D661F829F2227B00DA11DE0
:103E7000621F739FB00DA11D621F839FA00D611D66
:103E8000221F749F3327A00D611D231F849F600D87
:103E9000211D822F762F6A2F11249F5750409AF0B0
:103EA000F1F088234AF0EE0FFF1FBB1F661F771F3C
:103EB000881F91505040A9F79E3F510580F00C9407
:103EC000761F0C94C11F5F3FE4F3983ED4F38695B0
:103ED00077956795B795F795E7959F5FC1F7FE2BA7
:103EE000880F911D9695879597F9089597F99F6783
:103EF00080E870E060E008959FEF80EC0895002472
:103F00000A941616170618060906089500240A943E
:103F100012161306140605060895092E0394000CC4
:103F200011F4882352F0BB0F40F4BF2B11F460FF53
:103F300004C06F5F7F4F8F4F9F4F089557FD90587C
:103F4000440F551F59F05F3F71F04795880F97FB5D
:103F5000991F61F09F3F79F0879508951216130617
:103F60001406551FF2CF4695F1DF08C01616170646
:103F70001806991FF1CF869571056105089408957B
:103F8000E894BB2766277727CB0197F908950E940D
:103F9000D21FA59F900DB49F900DA49F800D911DE1
:103FA00011240895A29FB001B39FC001A39F700D7B
:103FB000811D1124911DB29F700D811D1124911D31
:103FC00008955058BB27AA270E94F91F0C948D1FF3
:103FD0000E947F1F38F00E94861F20F039F49F3F17
:103FE00019F426F40C947C1F0EF4E095E7FB0C9476
:103FF000761FE92F0E949E1F58F3BA1762077307B6
:104000008407950720F079F4A6F50C94C01F0EF4F0
:10401000E0950B2EBA2FA02D0B01B90190010C01D8
:10402000CA01A0011124FF27591B99F0593F50F4F0
:10403000503E68F11A16F040A22F232F342F442748
:10404000585FF3CF469537952795A795F040539540
:10405000C9F77EF41F16BA0B620B730B840BBAF010
:104060009150A1F0FF0FBB1F661F771F881FC2F77B
:104070000EC0BA0F621F731F841F48F4879577958F
:104080006795B795F7959E3F08F0B0CF9395880F49
:1040900008F09927EE0F9795879508950E94622062
:1040A0000C948D1F0E94861F58F00E947F1F40F0C5
:1040B00029F45F3F29F00C94761F51110C94C11F15
:1040C0000C947C1F0E949E1F68F39923B1F3552323
:1040D00091F3951B550BBB27AA276217730784071B
:1040E00038F09F5F5F4F220F331F441FAA1FA9F3B1
:1040F00035D00E2E3AF0E0E832D091505040E6959F
:10410000001CCAF72BD0FE2F29D0660F771F881FFF
:10411000BB1F261737074807AB07B0E809F0BB0BF2
:10412000802DBF01FF2793585F4F3AF09E3F510506
:1041300078F00C94761F0C94C11F5F3FE4F3983E17
:10414000D4F3869577956795B795F7959F5FC9F7EF
:10415000880F911D9695879597F90895E1E0660F70
:10416000771F881FBB1F621773078407BA0720F0E9
:10417000621B730B840BBA0BEE1F88F7E095089552
:104180000E94C7206894B1110C94C11F08950E9429
:10419000A61F88F09F5798F0B92F9927B751B0F014
:1041A000E1F0660F771F881F991F1AF0BA95C9F7BB
:1041B00014C0B13091F00E94C01FB1E008950C947A
:1041C000C01F672F782F8827B85F39F0B93FCCF32D
:1041D000869577956795B395D9F73EF49095809538
:1041E000709561957F4F8F4F9F4F08950E94E51EF8
:1041F00008F48FEF08950E94E51E880B990B08952F
:10420000991B79E004C0991F961708F0961B881F28
:104210007A95C9F780950895AA1BBB1B51E107C089
:10422000AA1FBB1FA617B70710F0A61BB70B881F46
:10423000991F5A95A9F780959095BC01CD010895D5
:1042400097FB072E16F4009407D077FD09D00E9443
:104250000C2107FC05D03EF4909581959F4F089561
:10426000709561957F4F0895A1E21A2EAA1BBB1B82
:10427000FD010DC0AA1FBB1FEE1FFF1FA217B30732
:10428000E407F50720F0A21BB30BE40BF50B661F48
:10429000771F881F991F1A9469F76095709580950C
:1042A00090959B01AC01BD01CF010895EE0FFF1F5A
:1042B0000590F491E02D09940F931F93CF93DF9312
:1042C0008230910510F482E090E0E0913507F091A2
:1042D000360730E020E0B0E0A0E0309799F42115F7
:1042E000310509F44AC0281B390B24303105D8F5B3
:1042F0008A819B816115710589F1FB01938382831A
:10430000FE0111C040815181028113814817590774
:10431000E0F04817590799F4109761F012960C9342
:10432000129713961C933296CF01DF91CF911F9174
:104330000F9108950093350710933607F4CF211598
:10434000310551F04217530738F0A901DB019A01FA
:10435000BD01DF01F801C1CFEF01F9CF909336071E
:1043600080933507CDCFFE01E20FF31F8193919328
:104370002250310939832883D7CF209133073091D8
:104380003407232B41F42091580130915901309387
:10439000340720933307209156013091570121159E
:1043A000310541F42DB73EB740915A0150915B0160
:1043B000241B350BE0913307F0913407E217F30724
:1043C000A0F42E1B3F0B2817390778F0AC014E5F85
:1043D0005F4F2417350748F04E0F5F1F5093340787
:1043E00040933307819391939FCFF0E0E0E09CCF1F
:1043F000CF93DF930097E9F0FC013297138212828A
:10440000A0913507B0913607ED0130E020E010971C
:10441000A1F420813181820F931F209133073091C5
:1044200034072817390709F061C0F0933407E09387
:104430003307DF91CF910895EA01CE17DF07E8F542
:104440004A815B819E0141155105B1F7E901FB836A
:10445000EA8349915991C40FD51FEC17FD0761F408
:10446000808191810296840F951FE9019983888349
:10447000828193819B838A83F0E0E0E012968D91A4
:104480009C9113970097B9F52D913C911197CD010F
:104490000296820F931F209133073091340728171B
:1044A000390739F6309751F51092360710923507D3
:1044B000B0933407A0933307BCCFD383C28340812A
:1044C0005181840F951FC817D90761F44E5F5F4F64
:1044D00088819981480F591F518340838A819B812C
:1044E000938382832115310509F0B0CFF09336070D
:1044F000E09335079ECFFD01DC01C0CF138212820D
:10450000D7CFF894FFCF000000400000A04000008B
:104510000000020001000000020004000000FFFF94
:104520001E00100012001A000A000C00C800F00063
:1045300000006040FFFFFFFFFFFFFFFFFFFFFFFFE7
:10454000FFFFFFFF03020F0D070605043132334161
:1045500034353642373839432E302344000037078C
:104560008000000000000803680295025503C6029F
:10457000A402B802000000002205F504FA05CB04ED
:10458000EE04DB04CC0400000000540258025C027C
:1045900000000000C8086802FA05F9050D0A006E5F
:1045A000616E00696E66006F766600436F756C64BD
:1045B0006E27742066696E64205254430068656CEF
:1045C0006C6F21003120746F2073657420637572E5
:1045D00072656E74003220746F2073657420766F7C
:1045E0006C74616765003120746F20736574206599
:1045F00076656E7473003220746F20656E6420657A
:1046000076656E74730043686F6F736520493A0076
:1046100043686F6F73652056206D61783A00436878
:104620006F6F73652056206D696E3A005374617226
:104630007420543A002F00456E6420543A004D41D6
:104640005820763A004D494E20763A00763A20209E
:104650000076616C7565206F662056206D6178204C
:10466000007B20002C2000207D200076616C756589
:10467000206F662056206D696E20200049207661EB
:104680006C75653A200076616C7565206F662074E4
:1046900068652061727261793A20004B3A200062AD
:1046A0003A20002064617920737461727420617211
:1046B0007261792076616C756520200064617920D3
:1046C00073746172742073756D6D2076616C75659D
:1046D0003A2000686F75722073746172742073756C
:1046E0006D6D2076616C75653A20006D696E75742C
:1046F000652073746172742073756D6D2076616CC2
:1047000075653A20006461792073746F7020737549
:104710006D6D2076616C75653A2000686F7572204A
:1047200073746F702073756D6D2076616C75653A6A
:1047300020006D696E7574652073746F70207375D9
:104740006D6D2076616C75653A20007374617274CA
:1047500020646174653A00656E642064617465204C
:104760003A00563A2000493A200076616C7565207F
:104770006F66207374617274202064617920007602
:10478000616C7565206F6620737461727420686F48
:1047900075720076616C7565206F66207374617246
:1047A00074206D696E7574650076616C7565206F37
:1047B0006620656E64206461790076616C756520A1
:1047C0006F6620656E6420686F75720076616C7527
:1047D00065206F6620656E64206D696E7574650076
:1047E0004572726F7221004F7574206F6620746875
:1047F000652072616E6765004C6F676963616C204C
:104800006572726F72004100563A005600503A00CD
:104810005700204556454E54204F4E2000455645E2
:104820004E54204F464600566F6C746167653A20BF
:104830000020416D707320524D5320202D2D2D20CE
:1048400020004974206973206F6E2073636865646B
:10485000756C65642074696D650049742069732006
:104860004E4F54206F6E207363686564756C656489
:064870002074696D650073
:107E0000112484B714BE81FFF0D085E080938100F7
:107E100082E08093C00088E18093C10086E0809377
:107E2000C20080E18093C4008EE0C9D0259A86E02C
:107E300020E33CEF91E0309385002093840096BBD3
:107E4000B09BFECF1D9AA8958150A9F7CC24DD24C4
:107E500088248394B5E0AB2EA1E19A2EF3E0BF2EE7
:107E6000A2D0813461F49FD0082FAFD0023811F036
:107E7000013811F484E001C083E08DD089C08234E0
:107E800011F484E103C0853419F485E0A6D080C0E4
:107E9000853579F488D0E82EFF2485D0082F10E0AE
:107EA000102F00270E291F29000F111F8ED06801E7
:107EB0006FC0863521F484E090D080E0DECF843638
:107EC00009F040C070D06FD0082F6DD080E0C81688
:107ED00080E7D80618F4F601B7BEE895C0E0D1E017
:107EE00062D089930C17E1F7F0E0CF16F0E7DF06D8
:107EF00018F0F601B7BEE89568D007B600FCFDCFD4
:107F0000A601A0E0B1E02C9130E011968C91119780
:107F100090E0982F8827822B932B1296FA010C0160
:107F200087BEE89511244E5F5F4FF1E0A038BF0790
:107F300051F7F601A7BEE89507B600FCFDCF97BE46
:107F4000E89526C08437B1F42ED02DD0F82E2BD052
:107F50003CD0F601EF2C8F010F5F1F4F84911BD097
:107F6000EA94F801C1F70894C11CD11CFA94CF0C13
:107F7000D11C0EC0853739F428D08EE10CD085E9AC
:107F80000AD08FE07ACF813511F488E018D01DD067
:107F900080E101D065CF982F8091C00085FFFCCF94
:107FA0009093C60008958091C00087FFFCCF809118
:107FB000C00084FD01C0A8958091C6000895E0E648
:107FC000F0E098E1908380830895EDDF803219F02E
:107FD00088E0F5DFFFCF84E1DECF1F93182FE3DFCA
:107FE0001150E9F7F2DF1F91089580E0E8DFEE27F6
:047FF000FF270994CA
:027FFE00040479
:00000001FF
