:020000040000FA
:100000000C9462000C948A000C948A000C948A0070
:100010000C948A000C948A000C948A000C948A0038
:100020000C948A000C948A000C948A000C948A0028
:100030000C948A000C948A000C948A000C948A0018
:100040000C94B4050C948A000C9424060C94FE05C0
:100050000C948A000C948A000C948A000C948A00F8
:100060000C9456060C948A0000000000240027001F
:100070002A0000000000250028002B0000000000DE
:1000800023002600290004040404040404040202DA
:100090000202020203030303030301020408102007
:1000A0004080010204081020010204081020000012
:1000B0000008000201000003040700000000000027
:1000C0000000710711241FBECFEFD8E0DEBFCDBF07
:1000D00011E0A0E0B1E0ECE8F7E102C005900D927C
:1000E000A83EB107D9F723E0A8EEB1E001C01D9208
:1000F000A838B207E1F710E0C2E6D0E004C02197CB
:10010000FE010E94BE0BC136D107C9F70E942A0822
:100110000C94C40B0C94000096E0899FD00111242C
:10012000AF5FBC4F90967C936E935F9791E09196F2
:100130009C939197E0916E03F0916F0390916D0302
:10014000992339F0309751F0811108C080911D0337
:100150000994309719F05C968C91FACF0895CF925C
:10016000DF92EF92FF920F931F9396E0899FF00129
:100170001124EF5FFC4F11A2278D30A121303105F2
:1001800051F178F02230310509F451C023303105A6
:1001900009F452C01F910F91FF90EF90DF90CF9024
:1001A00008956623B9F361E070E00E948C002FB7D8
:1001B000F8948091600290916102A0916202B091E6
:1001C00063022FBF8093590390935A03A0935B035C
:1001D000B0935C03DFCF9FB7F894C0906002D090DB
:1001E0006102E0906202F09063029FBF00915903A8
:1001F00010915A0320915B0330915C03C01AD10A1D
:10020000E20AF30A00916B0310916C0330E020E0E6
:100210000C151D052E053F0550F462E070E01F919E
:100220000F91FF90EF90DF90CF900C948C006111B4
:10023000B1CF63E070E0F3CF70E060E0F0CF8330E7
:1002400081F028F4813099F08230A9F00895873048
:10025000A9F08830C9F08430B1F4809180008F7D9E
:1002600003C0809180008F7780938000089584B5CB
:100270008F7784BD089584B58F7DFBCF8091B000CA
:100280008F778093B00008958091B0008F7DF9CF73
:10029000CF93DF93282F30E0F901E255FF4F84918F
:1002A000F901E656FF4FD491F901EA57FF4FC49187
:1002B000CC23A1F081110E941F01EC2FF0E0EE0F82
:1002C000FF1FE458FF4FA591B491EC91ED2381E01D
:1002D00090E009F480E0DF91CF91089580E090E014
:1002E000FACF1F93CF93DF93282F30E0F901E25527
:1002F000FF4F8491F901E656FF4FD491F901EA5777
:10030000FF4FC491CC23A9F0162F81110E941F0129
:10031000EC2FF0E0EE0FFF1FEE58FF4FA591B491C8
:100320008FB7F894EC91111108C0D095DE23DC93BF
:100330008FBFDF91CF911F910895DE2BF8CFCF9320
:10034000DF9390E0FC01E656FF4F24918A579F4FC0
:10035000FC0184918823C9F090E0880F991FFC016B
:10036000E859FF4FA591B491FC01EE58FF4FC5919C
:10037000D49161110DC09FB7F8948C912095822380
:100380008C938881282328839FBFDF91CF91089584
:10039000623051F49FB7F8943C91822F809583236B
:1003A0008C93E8812E2BEFCF8FB7F894EC912E2B06
:1003B0002C938FBFEACF3FB7F89480915C02909165
:1003C0005D02A0915E02B0915F0226B5A89B05C0B8
:1003D0002F3F19F00196A11DB11D3FBFBA2FA92FC4
:1003E000982F8827BC01CD01620F711D811D911DC1
:1003F00042E0660F771F881F991F4A95D1F708952D
:100400008F929F92AF92BF92CF92DF92EF92FF9224
:100410004B015C010E94DB016B017C010E94DB014E
:100420006C197D098E099F09683E7340810591050D
:10043000A8F321E0821A9108A108B10888EEC80E3D
:1004400083E0D81EE11CF11C81149104A104B104C5
:1004500029F7FF90EF90DF90CF90BF90AF909F90E3
:100460008F900895862F642F0C949F01862F642F00
:100470000C947101862F0C944801AF92BF92CF92D9
:10048000DF92EF92FF920F931F93CF93DF936C0154
:100490007B018B01040F151FEB015E01AE18BF0835
:1004A000C017D10759F06991D601ED91FC910190E7
:1004B000F081E02DC6010995892B79F7C501DF91FF
:1004C000CF911F910F91FF90EF90DF90CF90BF9051
:1004D000AF900895FC01538D448D252F30E0842F7B
:1004E00090E0821B930B541710F0CF96089501975C
:1004F0000895FC01918D828D981761F0A28DAE0F49
:10050000BF2FB11D5D968C91928D9F5F9F73928FCF
:1005100090E008958FEF9FEF0895FC01918D828DFB
:10052000981731F0828DE80FF11D858D90E00895C8
:100530008FEF9FEF0895FC01918D228D892F90E020
:10054000805C9F4F821B91098F739927089584E6E1
:1005500092E00E949B0221E0892B09F420E0822F87
:10056000089580E090E0892B29F00E94A702811174
:100570000C9400000895FC01A48DA80FB92FB11DA3
:10058000A35ABF4F2C91848D90E001968F739927C9
:10059000848FA689B7892C93A089B1898C918370A7
:1005A00080648C93938D848D981306C00288F389A0
:1005B000E02D80818F7D80830895EF92FF920F93CD
:1005C0001F93CF93DF93EC0181E0888F9B8D8C8DFF
:1005D00098131AC0E889F989808185FF15C09FB7F3
:1005E000F894EE89FF896083E889F98980818370B6
:1005F000806480839FBF81E090E0DF91CF911F9165
:100600000F91FF90EF900895F62E0B8D10E00F5F85
:100610001F4F0F731127E02E8C8D8E110CC00FB65B
:1006200007FCFACFE889F989808185FFF5CFCE01F3
:100630000E94BB02F1CFEB8DEC0FFD2FF11DE35AB1
:10064000FF4FF0829FB7F8940B8FEA89FB89808176
:100650008062CFCFCF93DF93EC01888D8823B9F0F0
:10066000AA89BB89E889F9898C9185FD03C08081BD
:1006700086FD0DC00FB607FCF7CF8C9185FFF2CF3A
:10068000808185FFEDCFCE010E94BB02E9CFDF91D3
:10069000CF91089520910F02260F3327331F213267
:1006A0003105ECF420913302FC0190E080E024302D
:1006B00069F082E00895A0910F022191AC014151AF
:1006C0005E4FA40FB52FB11D2C930196861798F39A
:1006D00080910F02680F60930F0280E0089581E01F
:1006E000089508958FEF9FEF08958FEF9FEF08957E
:1006F0008091E80190E09195819591090895CF93BB
:10070000DF93CB01EA01642F0E944A03CE01DF91FF
:10071000CF910895CF93DF931F92CDB7DEB7698352
:1007200061E0CE0101960E944A0381E090E00F90C3
:10073000DF91CF910895089590E080E00895CF93E0
:10074000DF93EC0160E08E810E94710161E08E8197
:100750000E94710160E08E810E9471018BE891E03E
:100760000197F1F7DF91CF910895CF92DF92EF9249
:10077000FF920F931F93CF93DF936C017C0187E06F
:10078000E80EF11CD0E0C0E0062F10E0B8010C2EFE
:1007900002C0759567950A94E2F76170F70181913F
:1007A0007F010E9471012196C430D10579F7C601FD
:1007B000DF91CF911F910F91FF90EF90DF90CF903D
:1007C0000C949F03CF92DF92EF92FF920F931F93AF
:1007D000CF93DF93EC01F62E642F8C810E94710180
:1007E0008D818F3F19F060E00E9471010F2D10E0A4
:1007F0008F8584FF25C06E0187E0C80ED11CF12CC7
:10080000E12CB8010E2C02C0759567950A94E2F7A9
:100810006170F60181916F010E947101FFEFEF1A83
:10082000FF0A88E0E816F10461F7CE01DF91CF916D
:100830001F910F91FF90EF90DF90CF900C949F034A
:10084000B80184E0759567958A95E1F7CE010E941D
:10085000B5036F2DCE01DF91CF911F910F91FF90C6
:10086000EF90DF90CF900C94B50340E0682F80E7C5
:1008700093E00C94E20381E00E9435048BE39FE156
:100880000197F1F70895CF93DF93823029F4909187
:100890007F03986090937F03809383031092840377
:1008A00080E48093850380E18093860380E58093D4
:1008B000870361E0809174030E949F01809175031A
:1008C0008F3F19F061E00E949F0161E08091760303
:1008D0000E949F01C0E7D3E09E01205733408091E2
:1008E0007F0384FD0BC084E090E021962817390730
:1008F00044F461E08E810E949F01EECF88E090E099
:10090000F4CF8BE39DE00197F1F760E080917403F1
:100910000E94710160E0809176030E9471018091D4
:1009200075038F3F19F060E00E94710180917F0391
:1009300084FD34C063E080E793E00E94B503CBE41C
:10094000D6E4CE010197F1F763E080E793E00E94DF
:10095000B5032197F1F763E080E793E00E94B503C8
:1009600083E592E00197F1F762E080E793E00E946F
:10097000B50380917F0380620E94350484E08093F8
:1009800080038CE00E9435040E943B0482E0809347
:10099000810386E0DF91CF910C94350480620E9440
:1009A00035048BE496E40197F1F780917F03806230
:1009B0000E94350483E592E00197F1F780917F036F
:1009C00080620E943504D5CF90918303691710F09F
:1009D0006FEF690FE62FF0E0E059FC4F9489890F23
:1009E00080680C943504E0E7F3E080898E7F808B8B
:1009F00088600C943504E0E7F3E080898D7F808B7C
:100A000088600C943504E0E7F3E08089982F9160CA
:100A1000908B89600C943504E0E7F3E08089982F8F
:100A20009260908B8A600C94350441E00E94E2034E
:100A300081E090E00895FB0101900020E9F73197F3
:100A4000AF01461B570BDC01ED91FC910280F38155
:100A5000E02D0994CF93DF93682F84E692E00E9403
:100A6000DD02EC0166E471E084E692E00E941B0581
:100A70008C0F9D1FDF91CF9108950C941B051F9340
:100A8000CF93DF9385ED8093BC008091EB01909133
:100A9000EC01A091ED01B091EE010796A11DB11DF1
:100AA00023E0B695A795979587952A95D1F720913C
:100AB000BC0024FD03C01092330252C04091EB01F0
:100AC0005091EC016091ED017091EE01452B462BA8
:100AD000472B69F30097A105B10541F02AE22A9559
:100AE000F1F700C00197A109B109E1CF8091EA01B6
:100AF000C1E0C093E901882399F1D091B800109129
:100B0000BA008091BC008A7B8093BC0060E082E1E7
:100B10000E94710160E083E10E9471011092330232
:100B2000C09335021092340261E082E10E947101AB
:100B300061E083E10E9471018091B9008E7F809312
:100B4000B9008091B9008D7F8093B90088E48093CB
:100B5000B80085E48093BC001093BA00D093B8002D
:100B6000DF91CF911F9108951F920F920FB60F92B0
:100B700011242F933F938F939F93AF93BF938091B3
:100B8000600290916102A0916202B0916302309183
:100B90005B0223E0230F2D3758F50196A11DB11DEF
:100BA00020935B028093600290936102A0936202A3
:100BB000B093630280915C0290915D02A0915E020D
:100BC000B0915F020196A11DB11D80935C029093CC
:100BD0005D02A0935E02B0935F02BF91AF919F91BF
:100BE0008F913F912F910F900FBE0F901F901895EE
:100BF00026E8230F0296A11DB11DD2CF1F920F929E
:100C00000FB60F9211242F933F934F935F936F93DF
:100C10007F938F939F93AF93BF93EF93FF9384E65C
:100C200092E00E94BB02FF91EF91BF91AF919F9123
:100C30008F917F916F915F914F913F912F910F9085
:100C40000FBE0F901F9018951F920F920FB60F9224
:100C500011242F938F939F93EF93FF93E09174024E
:100C6000F09175028081E0917A02F0917B0282FD21
:100C70001BC0908180917D028F5F8F7320917E02D7
:100C8000821741F0E0917D02F0E0EC59FD4F958F25
:100C900080937D02FF91EF919F918F912F910F9003
:100CA0000FBE0F901F9018958081F4CF1F920F9266
:100CB0000FB60F9211242F933F934F935F936F932F
:100CC0007F938F939F93AF93BF93EF93FF93809105
:100CD000B900887F803609F44AC0F0F5883209F4FB
:100CE000A5C018F5803109F499C0B8F4882309F437
:100CF000F5C0883009F492C0FF91EF91BF91AF9198
:100D00009F918F917F916F915F914F913F912F9123
:100D10000F900FBE0F901F901895883109F486C070
:100D2000803251F78093320214C0803409F49BC0A2
:100D300040F48033B9F38833F9F68093320285ECBE
:100D4000AEC0803509F483C0883509F494C0883476
:100D500099F60E943F05D0CF883909F48AC038F54A
:100D6000883729F050F4883611F0803729F683E06F
:100D7000809333021092310255C0883809F479C04B
:100D8000803919F0803809F0B7CF80913102803274
:100D900008F06FC0E091310281E08E0F8093310244
:100DA0008091BB00F0E0EF5EFD4F80833BC0803B55
:100DB00039F0D0F4803A09F477C0883A09F09CCF32
:100DC00084E0809333021092100210920F02F0E040
:100DD000E0E0099580910F0281110FC081E08093BE
:100DE0000F021092EF0109C0803C09F4A8CF883CA3
:100DF00009F4A5CF883B09F07FCFE091100281E094
:100E00008E0F80931002F0E0E151FE4F80818093BD
:100E1000BB009091100280910F0229C0809158026E
:100E20008093BB0085EC8093BC0066CF9091570205
:100E300080915602981758F5E091570281E08E0F85
:100E400080935702F0E0EA5CFD4F8081E9CFE091AA
:100E5000570281E08E0F809357028091BB00F0E033
:100E6000EA5CFD4F8083909157028091560298175B
:100E7000C8F285E8D8CFE091570281E08E0F8093C9
:100E800057028091BB00F0E0EA5CFD4F80838091C7
:100E9000350281115ECF81E08093340284EA809331
:100EA000BC001092330228CF85EC8093BC001092D6
:100EB000330280913102803230F4E0913102F0E06F
:100EC000EF5EFD4F10826091310270E081E192E0AF
:100ED000F0E0E0E00995109231020ECF109232025C
:100EE00038CF109267021092660288EE93E0A0E07D
:100EF000B0E08093680290936902A0936A02B09375
:100F00006B0282E291E0909365028093640285EC2B
:100F100090E0909371028093700284EC90E0909343
:100F200073028093720280EC90E09093750280933C
:100F3000740281EC90E0909377028093760282ECC9
:100F400090E0909379028093780286EC90E0909301
:100F50007B0280937A0210927D0210927E021092A0
:100F60007F021092800210927303109272038EE33C
:100F700091E090937103809370038DE080937403EC
:100F80008FEF809375038CE0809376038BE08093E2
:100F900077038AE08093780389E08093790388E07F
:100FA00080937A0310927B0310927C0310927D034E
:100FB00010927E0310927F0381E00E9443041092FE
:100FC000030310920703109206031092080384E3B0
:100FD00091E09093020380930103EDE1F3E010822E
:100FE000148213821582369683E0E935F807B9F743
:100FF0008AE091E0909364038093630386E091E03C
:10100000909366038093650384E0809367038093E5
:1010100068038EE091E090936203809361038AE01D
:1010200090E090936A038093690384EF91E090933A
:101030006C0380936B0310926F0310926E031092F7
:101040005D0310925E0310925F0310926003109292
:101050006D030895CF93DF93CDB7DEB7A3970FB697
:10106000F894DEBF0FBECDBF789484B5826084BD96
:1010700084B5816084BD85B5826085BD85B581609C
:1010800085BD80916E00816080936E00109281001A
:1010900080918100826080938100809181008160D5
:1010A0008093810080918000816080938000809196
:1010B000B10084608093B1008091B0008160809322
:1010C000B00080917A00846080937A0080917A00E9
:1010D000826080937A0080917A00816080937A00A8
:1010E00080917A00806880937A001092C100E0912C
:1010F0007402F091750282E08083E0917002F091B9
:1011000071021082E0917202F09173028FEC808381
:1011100010927C02E0917802F091790286E080835F
:10112000E0917602F0917702808180618083E09186
:101130007602F0917702808188608083E091760268
:10114000F0917702808180688083E0917602F0914F
:10115000770280818F7D808382E00E94430469E46E
:1011600071E080E793E00E943D0564EF71E080E06C
:1011700090E00E9400020E943B0467E571E080E776
:1011800093E00E943D0561E080E00E94E40462E695
:1011900071E080E793E00E943D054AE0442E512C27
:1011A000612C712C88248A94982CAA24A394B12CA5
:1011B00081E080936D038FB7F89440916002509165
:1011C000610260916202709163028FBF80915D0342
:1011D00090915E03A0915F03B0916003481B590B8F
:1011E0006A0B7B0B8091690390916A03B0E0A0E0E9
:1011F00084179507A607B70708F016C110E080917D
:101200006703181760F4E0916303F0916403E10F42
:10121000F11D62E080810E949F011F5FF0CF312CA1
:1012200080916803381608F066C0E32CF12CE09139
:101230006503F0916603EE0DFF1D61E080810E9461
:101240009F01E0916503F0916603EE0DFF1D60E0E4
:1012500080810E94710181E090E0A0E0B0E0032C69
:1012600004C0880F991FAA1FBB1F0A94D2F79BA323
:101270008AA36C01C094D094212C80916703281616
:1012800018F5022D10E0E0916303F0916403E00F84
:10129000F11F80810E9448010C5F1F4F000F111F3A
:1012A000F801EF5FFC4F892B51F4808191812AA1D5
:1012B0003BA1822B932B918380832394DECF80816B
:1012C00091818C219D21F7CFE0916503F091660318
:1012D000EE0DFF1D61E080810E9471018091650328
:1012E00090916603E80EF91E60E0F70180810E948C
:1012F0009F01339495CF91E0E92E93E0F92EF70109
:10130000878D90A1892B31F4148E2FEF3FEF368F0C
:10131000258F11A2369633E0ED33F30789F7D12CF0
:1013200080916703D81608F051C0C12C0D2D10E034
:10133000000F111F075F1C4F20916803C21608F0B1
:1013400043C0F801608171810C2C02C076956795CD
:101350000A94E2F7D29E900111242C0D311DE1E098
:10136000F3E080E0458D568D2417350709F4E2C17E
:101370008F5F36968A30B1F760FF24C0E1E0F3E07A
:1013800090E080E0448D411118C0E0916103F0913C
:101390006203E20FF31F408156E0589FF001599F0E
:1013A000F00D1124EF5FFC4F448F368F258F10A274
:1013B000178E61E00E94AF0005C0019636968A3014
:1013C000910501F7C394B8CFD394AACF80E0F70179
:1013D00091A19111892FF6E0EF0EF11C2DE3E21699
:1013E00023E0F206A1F79FB7F89440916002509174
:1013F000610260916202709163029FBF40935D033E
:1014000050935E0360935F0370936003882361F0E1
:1014100080912203882341F0809120039091210341
:1014200010911D03019719F010926D0310E06BE607
:1014300071E084E692E00E943D05812F0E942A051A
:101440006AEF70E080E090E00E940002113411F534
:101450000E943B0460E080E00E94E4046BE771E0DE
:1014600080E793E00E943D050E94FB040E94F30484
:1014700061E080E00E94E4046CE871E080E793E0C2
:101480000E943D050E94FB040E94F304B0920501F6
:10149000A0920401E0900401F090050131E0E31610
:1014A000F104D1F41133C1F40E943B0460E080E008
:1014B0000E94E4046DE971E080E793E00E943D053D
:1014C0000E940C050E940305909205018092040180
:1014D000F0920301E09202018091020190910301D8
:1014E000019709F0A9C060E089E00E94E40468EC7B
:1014F00070E080E090E00E94000210925A02109288
:1015000059028091590290915A0203970CF074C0CD
:1015100068EE73E080E090E00E940002112389F3FE
:1015200041E0612F80E793E00E94E20365E771E00C
:1015300084E692E00E943D05812F0E942A05809159
:10154000590290915A02019690935A02809359023F
:1015500067EA71E084E692E00E943D05C09059027E
:10156000D0905A020D2C000CEE08FF08F7FE2EC09A
:101570006DE284E692E00E94DD0222273327A90172
:101580002C193D094E095F0919A2CE0181967C01F3
:10159000CA01B901A30192010E949C0B605DF70191
:1015A00062937F01211531054105510589F7E11449
:1015B000F10429F0B70184E692E00E941B0566E47D
:1015C00071E084E692E00E941B059BCFA701960183
:1015D00019A2CE0181967C01CA01B901A301920131
:1015E0000E949C0B605DF70162937F01211531051C
:1015F0004105510589F7DBCF10925A02109259022A
:101600009092030180920201123409F03FC00E94BF
:101610003B0460E080E00E94E40467EC71E080E756
:1016200093E00E943D050E94FB040E94F304B092E7
:101630000101A09200012AC080910401909105014E
:10164000019711F7123301F70E943B0460E080E03C
:101650000E94E4046BEA71E080E793E00E943D059C
:1016600061E080E00E94E40469EB71E080E793E0D0
:101670000E943D0560E08DE00E94E4040E940C059C
:101680000E9403051092050110920401809100014F
:1016900090910101019789F5113379F50E943B047E
:1016A00060E080E00E94E40468ED71E080E793E090
:1016B0000E943D0561E080E00E94E40461EE71E07B
:1016C00080E793E00E943D0560E088E00E94E4042A
:1016D0000E940C050E940305909201018092000176
:1016E00020E030E0232B09F463CD0E94A702882379
:1016F00009F45BCD0E94000058CD133289F70E9497
:101700003B0460E080E00E94E40467E571E080E76C
:1017100093E00E943D0561E080E00E94E40462E6FF
:1017200071E080E793E00E943D050E94FB040E9467
:10173000F304D6CF61703ECEA1E21A2EAA1BBB1BCA
:10174000FD010DC0AA1FBB1FEE1FFF1FA217B3078D
:10175000E407F50720F0A21BB30BE40BF50B661FA3
:10176000771F881F991F1A9469F760957095809567
:1017700090959B01AC01BD01CF010895EE0FFF1FB5
:101780000590F491E02D0994F894FFCFFFFFFFFF3F
:10179000FFFF0302010007060504313233413435EF
:1017A0003642373839432C30234400000000DD0234
:1017B0003D026A022A039B0279028D0200000000AA
:1017C000320236023A020000000015053D029C0379
:1017D0009B030D0A0068656C6C6F2C20776F726C30
:1017E00064210043555252454E543A5F4100706F98
:1017F0007765723A5F57004D41494E206C6F6F70AC
:10180000206B65793A200050726573732031207423
:101810006F20736574204900507265737320322005
:10182000746F2073657420560043686F6F73652072
:10183000493A00693A200043686F6F73652056206B
:101840006D61783A0043686F6F73652056206D694B
:101850006E3A005072657373203120746F20736587
:1018600074205400537461727420543A00456E64BD
:0418700020543A00C6
:107E0000112484B714BE81FFF0D085E080938100F7
:107E100082E08093C00088E18093C10086E0809377
:107E2000C20080E18093C4008EE0C9D0259A86E02C
:107E300020E33CEF91E0309385002093840096BBD3
:107E4000B09BFECF1D9AA8958150A9F7CC24DD24C4
:107E500088248394B5E0AB2EA1E19A2EF3E0BF2EE7
:107E6000A2D0813461F49FD0082FAFD0023811F036
:107E7000013811F484E001C083E08DD089C08234E0
:107E800011F484E103C0853419F485E0A6D080C0E4
:107E9000853579F488D0E82EFF2485D0082F10E0AE
:107EA000102F00270E291F29000F111F8ED06801E7
:107EB0006FC0863521F484E090D080E0DECF843638
:107EC00009F040C070D06FD0082F6DD080E0C81688
:107ED00080E7D80618F4F601B7BEE895C0E0D1E017
:107EE00062D089930C17E1F7F0E0CF16F0E7DF06D8
:107EF00018F0F601B7BEE89568D007B600FCFDCFD4
:107F0000A601A0E0B1E02C9130E011968C91119780
:107F100090E0982F8827822B932B1296FA010C0160
:107F200087BEE89511244E5F5F4FF1E0A038BF0790
:107F300051F7F601A7BEE89507B600FCFDCF97BE46
:107F4000E89526C08437B1F42ED02DD0F82E2BD052
:107F50003CD0F601EF2C8F010F5F1F4F84911BD097
:107F6000EA94F801C1F70894C11CD11CFA94CF0C13
:107F7000D11C0EC0853739F428D08EE10CD085E9AC
:107F80000AD08FE07ACF813511F488E018D01DD067
:107F900080E101D065CF982F8091C00085FFFCCF94
:107FA0009093C60008958091C00087FFFCCF809118
:107FB000C00084FD01C0A8958091C6000895E0E648
:107FC000F0E098E1908380830895EDDF803219F02E
:107FD00088E0F5DFFFCF84E1DECF1F93182FE3DFCA
:107FE0001150E9F7F2DF1F91089580E0E8DFEE27F6
:047FF000FF270994CA
:027FFE00040479
:00000001FF
